:1018000020E0A0E6B0E001C01D92AA3BB207E1F7DC
:10181000CFE5D4E0DEBFCDBF11241FBE59C0813655
:1018200010F087550895813410F087530895803360
:1018300010F08053089580E008951F93CF93DF93B5
:101840001F92CDB7DEB76983EADF182F6981862F33
:10185000E6DF90E1199F800D11240F90DF91CF9169
:101860001F91089524E0969587952A95E1F790BDFC
:1018700089B91BB888E18AB986E880BD0895CF93FD
:10188000C82F8D3011F48AE0FADF5D9BFECFCCB912
:10189000CF9108955F9BFECF8CB108958F708A30F1
:1018A00010F0895A01C0805DEACFCF93C82F82958E
:1018B0008F70F4DF8C2FCF91F1CFCF93DF93EC01BA
:1018C00001C0DDDF89918111FCCFDF91CF910895B7
:1018D000CF93DF93CDB7DEB72A970FB6F894DEBF6C
:1018E0000FBECDBFF89482B3836082BB8C9A94986C
:1018F0001FBC81E08EBD84B7877F84BF81B58861BE
:1019000081BD11BC109263001092620080E090E0F3
:10191000DC0171E10AC00196A11DB11D81302AE6EA
:10192000920728E1A207B10520F48099F4CF60E086
:1019300001C061E01DBC1CBC0AC00196A11DB11D07
:1019400081303AE6930738E1A307B10518F4809B8C
:10195000F4CF01C061E0713160F44CB55DB5209108
:10196000620030916300240F351F30936300209391
:101970006200715019F06623C1F202C0613081F437
:101980001EBC1DBC1CBC82B38C7F82BB10BC19B8B2
:101990001AB886E880BDE0916000F0916100099579
:1019A000809162009091630024E0969587952A9536
:1019B000E1F790936300809362008FE493EC0197CA
:1019C000F1F700C0000080916200909163004ADF4F
:1019D00061DF60DF8535A1F65DDF853589F65ADF89
:1019E000853571F657DF8535E9F3949A83E647DF4D
:1019F00084E345DF85E343DF82E641DF82E33FDFC7
:101A000080E23DDF86E73BDF82E339DF8EE237DFCE
:101A100089E335DF8EE433DF10928800CC24CA944A
:101A2000DC2C760199249394949A8DE028DF8EE340
:101A300026DF81E124DF5E9A5E9BFECF949810E062
:101A400029DFE12FF0E0E857FF4F80838535C1F3B0
:101A5000833021F498E59093880003C01F5F8A309B
:101A600079F7E12FF0E0DF01A957BF4F1C92EA5749
:101A7000FF4F80818D3009F41082949A83E1FFDE5C
:101A800088E890E01ADF10918800173659F020F4AA
:101A9000153609F0F2C124C01D3611F1103709F0D6
:101AA000ECC157C08BE2EBDE8DE0E9DE81E1E7DEE1
:101AB000AFE4B3EC1197F1F700C000001EBC1DBCF1
:101AC0001CBC949882B38C7F82BB10BC19B81AB826
:101AD000B6E8B0BDE0916000F09161000995A4CF37
:101AE00060918B0080918A00A8DE082F60918D00A4
:101AF00080918C00A2DE0C831B82AB80BC80A80E80
:101B0000B11C80918900873799F460918F00809192
:101B10008E0093DE082F153629F4E199FECF602F51
:101B2000C501BFD1809188008D3611F4F501008385
:101B300080918800853621F4C501A2D1182F02C0FA
:101B4000D5011C918BE29BDE8DE099DE812FADDE0D
:101B50006BCF8BE294DE8DE092DE1092810080915B
:101B60008900853611F490928100C0926500D09270
:101B70006600E0926700F092680010928300109275
:101B80008200109285001092840010926A001092D8
:101B9000640010926B0081E172DE5E9A5E9BFECF64
:101BA000949810E077DEA12FB0E0A857BF4F8C9338
:101BB0001F5F8A30B9F7949A83E161DEE12FF0E08C
:101BC000E957FF4F108260918A008091890035DECD
:101BD000B82E8093690060918C0080918B002DDE7F
:101BE000082F8A83198260918E0080918D0025DEF6
:101BF00049805A80480E511C6091900080918F005E
:101C00001CDE182F809387000B0D080F040D009326
:101C10006C00EB2DF0E03F01660C771CF301EE56F3
:101C2000FF4FD301A857BF4F608119968C9105DEF5
:101C3000882E809386001230C9F4609192008091C2
:101C40009100FBDD382E212C60919400809193004F
:101C5000F4DDF101E80FF11DCF01F0938500E09371
:101C60008400830D800F80936C0081C0113029F4B3
:101C70001093640010936B007AC0111178C08091AA
:101C8000650090916600A0916700B09168008F3F59
:101C90009F4FAF4FBF4F59F4C201A0E0B0E0809317
:101CA000650090936600A0936700B0936800509120
:101CB0008100009184001091850084E0000F111FC5
:101CC0008A95E1F78091650090916600080F191FD1
:101CD00020918200309183003A87298750906C00D0
:101CE00040E037C0B8E8AB2EB0E0BB2EA20EB31E6A
:101CF000D5011A966C911A9719968C914F83588733
:101D00009CDD482EF5016485838597DD242D280F01
:101D1000520E58854F81E985FA85513029F4E359EF
:101D2000FF4F408281830EC0E00FF11F8E831D8222
:101D30008D819E81840D911D21E00C01209357001F
:101D4000E89511244C5F29853A852E5F3F4F3A87ED
:101D50002987242F30E0261537050CF4C3CF2985B9
:101D60003A85309383002093820050926C008091DA
:101D70006C00880D19F090926A0079C08EE27FDDC8
:101D800040918200509183004034510510F09092B0
:101D90006B00E0918100E13011F4E0936B00F09171
:101DA0006B00F13009F05AC0009165001091660097
:101DB00020916700309168000F3F8FEF18072807C8
:101DC000380709F44BC0609184007091850080E071
:101DD00090E0A4E0660F771F881F991FAA95D1F79E
:101DE000600F711F821F931F6093650070936600E0
:101DF0008093670090936800E13031F4E199FECF61
:101E00008DE690E045D01CC06115A8E17A078105F8
:101E1000910518F0F0936A002AC0FB01B3E0B0937B
:101E20005700E89507B600FCFDCF25E0209357004A
:101E3000E89507B600FCFDCF81E180935700E89557
:101E40008AE21DDDC0926500D0926600E0926700D4
:101E5000F0926800109283001092820080916A00D4
:101E6000811105C080916400882309F48ECE809191
:101E70006A00811102C08BE201C08DE200DDD4CD89
:101E8000E199FECF9FBB8EBBE09A99278DB3089551
:101E9000DC01CB0102C02D9105D041505040D8F754
:101EA0000895262FE199FECF9FBB8EBB2DBB0FB6A9
:0C1EB000F894E29AE19A0FBE01960895A2
:0400000300001800E1
:00000001FF
